:07008400F4F5A07FC87E0027
:10008B00EF1FAA0670011E4A6015E4FCFDD3ED9428
:0F009B007CEC6480948050E80DBD00010C80EE79
:0100AA002233
:10000300E4F508F509F50AF50BE50B450A70390522
:1000130009E50970020508E4F583F582AF827401EE
:10002300A807088002C333D8FC120084A3E58264C6
:1000330008458370E7E5096404450870CCF508F5C5
:1000430009F50A750B0180C10509E5097002050868
:10005300E4F583F582AF827480A807088002C31396
:10006300D8FC120084A3E5826408458370E7E509A0
:10007300640445087093F508F509F50AF50B0200C9
:010083000C70
:030000000200AB50
:0C00AB00787FE4F6D8FD75810B0200039D
:00000001FF
